{
  "contractName": "BookWishlist",
  "abi": [
    {
      "constant": true,
      "inputs": [],
      "name": "numBooks",
      "outputs": [
        {
          "name": "",
          "type": "uint256"
        }
      ],
      "payable": false,
      "stateMutability": "view",
      "type": "function"
    },
    {
      "constant": false,
      "inputs": [],
      "name": "refundAll",
      "outputs": [],
      "payable": false,
      "stateMutability": "nonpayable",
      "type": "function"
    },
    {
      "constant": false,
      "inputs": [],
      "name": "kill",
      "outputs": [],
      "payable": false,
      "stateMutability": "nonpayable",
      "type": "function"
    },
    {
      "constant": false,
      "inputs": [
        {
          "name": "_name",
          "type": "string"
        },
        {
          "name": "_val",
          "type": "uint256"
        }
      ],
      "name": "addBook",
      "outputs": [
        {
          "name": "",
          "type": "uint256"
        }
      ],
      "payable": false,
      "stateMutability": "nonpayable",
      "type": "function"
    },
    {
      "constant": true,
      "inputs": [
        {
          "name": "id",
          "type": "uint256"
        }
      ],
      "name": "getListItem",
      "outputs": [
        {
          "name": "",
          "type": "string"
        },
        {
          "name": "",
          "type": "uint256"
        },
        {
          "name": "",
          "type": "uint256"
        }
      ],
      "payable": false,
      "stateMutability": "view",
      "type": "function"
    },
    {
      "constant": true,
      "inputs": [
        {
          "name": "",
          "type": "uint256"
        }
      ],
      "name": "books",
      "outputs": [
        {
          "name": "name",
          "type": "string"
        },
        {
          "name": "value",
          "type": "uint256"
        },
        {
          "name": "totalContributed",
          "type": "uint256"
        },
        {
          "name": "numContributors",
          "type": "uint256"
        }
      ],
      "payable": false,
      "stateMutability": "view",
      "type": "function"
    },
    {
      "constant": false,
      "inputs": [
        {
          "name": "id",
          "type": "uint256"
        }
      ],
      "name": "contribute",
      "outputs": [],
      "payable": true,
      "stateMutability": "payable",
      "type": "function"
    },
    {
      "constant": false,
      "inputs": [
        {
          "name": "id",
          "type": "uint256"
        }
      ],
      "name": "rescind",
      "outputs": [
        {
          "name": "",
          "type": "bool"
        }
      ],
      "payable": true,
      "stateMutability": "payable",
      "type": "function"
    },
    {
      "constant": true,
      "inputs": [
        {
          "name": "id",
          "type": "uint256"
        }
      ],
      "name": "getContribution",
      "outputs": [
        {
          "name": "",
          "type": "uint256"
        }
      ],
      "payable": false,
      "stateMutability": "view",
      "type": "function"
    },
    {
      "constant": false,
      "inputs": [],
      "name": "BookWishlit",
      "outputs": [],
      "payable": false,
      "stateMutability": "nonpayable",
      "type": "function"
    },
    {
      "payable": true,
      "stateMutability": "payable",
      "type": "fallback"
    }
  ],
  "bytecode": "0x6060604052341561000f57600080fd5b610ea48061001e6000396000f3006060604052600436106100a4576000357c0100000000000000000000000000000000000000000000000000000000900463ffffffff168063250caccc146100a657806338e771ab146100cf57806341c0e1b5146100e4578063637a3872146100f95780636597441e14610173578063687440461461021d578063c1cbbca7146102eb578063c54f70d414610303578063cef4225414610333578063d86f0d561461036a575b005b34156100b157600080fd5b6100b961037f565b6040518082815260200191505060405180910390f35b34156100da57600080fd5b6100e2610385565b005b34156100ef57600080fd5b6100f761051c565b005b341561010457600080fd5b61015d600480803590602001908201803590602001908080601f016020809104026020016040519081016040528093929190818152602001838380828437820191505050505050919080359060200190919050506105b1565b6040518082815260200191505060405180910390f35b341561017e57600080fd5b61019460048080359060200190919050506106a1565b6040518080602001848152602001838152602001828103825285818151815260200191508051906020019080838360005b838110156101e05780820151818401526020810190506101c5565b50505050905090810190601f16801561020d5780820380516001836020036101000a031916815260200191505b5094505050505060405180910390f35b341561022857600080fd5b61023e60048080359060200190919050506107b6565b60405180806020018581526020018481526020018381526020018281038252868181546001816001161561010002031660029004815260200191508054600181600116156101000203166002900480156102d95780601f106102ae576101008083540402835291602001916102d9565b820191906000526020600020905b8154815290600101906020018083116102bc57829003601f168201915b50509550505050505060405180910390f35b61030160048080359060200190919050506107e5565b005b6103196004808035906020019091905050610a60565b604051808215151515815260200191505060405180910390f35b341561033e57600080fd5b6103546004808035906020019091905050610c71565b6040518082815260200191505060405180910390f35b341561037557600080fd5b61037d610d7d565b005b60025481565b6000806000809054906101000a900473ffffffffffffffffffffffffffffffffffffffff1673ffffffffffffffffffffffffffffffffffffffff163373ffffffffffffffffffffffffffffffffffffffff161415156103e357600080fd5b600091505b60025482101561051857600090505b600160008381526020019081526020016000206003015481101561050b576000600160008481526020019081526020016000206004016000838152602001908152602001600020600101541415156104fe5760016000838152602001908152602001600020600401600082815260200190815260200160002060000160009054906101000a900473ffffffffffffffffffffffffffffffffffffffff1673ffffffffffffffffffffffffffffffffffffffff166108fc600160008581526020019081526020016000206004016000848152602001908152602001600020600101549081150290604051600060405180830381858888f1935050505015156104fd57600080fd5b5b80806001019150506103f7565b81806001019250506103e8565b5050565b6000809054906101000a900473ffffffffffffffffffffffffffffffffffffffff1673ffffffffffffffffffffffffffffffffffffffff163373ffffffffffffffffffffffffffffffffffffffff1614151561057757600080fd5b6000809054906101000a900473ffffffffffffffffffffffffffffffffffffffff1673ffffffffffffffffffffffffffffffffffffffff16ff5b6000806000809054906101000a900473ffffffffffffffffffffffffffffffffffffffff1673ffffffffffffffffffffffffffffffffffffffff163373ffffffffffffffffffffffffffffffffffffffff1614151561060f57600080fd5b60026000815480929190600101919050559050608060405190810160405280858152602001848152602001600081526020016000815250600160008381526020019081526020016000206000820151816000019080519060200190610675929190610dbf565b506020820151816001015560408201518160020155606082015181600301559050508091505092915050565b6106a9610e3f565b600080600254841080156106be575060008410155b15156106c957600080fd5b6001600085815260200190815260200160002060000160016000868152602001908152602001600020600101546001600087815260200190815260200160002060020154828054600181600116156101000203166002900480601f0160208091040260200160405190810160405280929190818152602001828054600181600116156101000203166002900480156107a25780601f10610777576101008083540402835291602001916107a2565b820191906000526020600020905b81548152906001019060200180831161078557829003601f168201915b505050505092509250925092509193909250565b600160205280600052604060002060009150905080600001908060010154908060020154908060030154905084565b600080341180156107f7575060025482105b8015610804575060008210155b151561080f57600080fd5b60006001600084815260200190815260200160002060050160003373ffffffffffffffffffffffffffffffffffffffff1673ffffffffffffffffffffffffffffffffffffffff168152602001908152602001600020541415156108fc57346001600084815260200190815260200160002060040160006001600086815260200190815260200160002060050160003373ffffffffffffffffffffffffffffffffffffffff1673ffffffffffffffffffffffffffffffffffffffff16815260200190815260200160002054815260200190815260200160002060010160008282540192505081905550610a38565b6001600083815260200190815260200160002060030160008154600101919050819055905060408051908101604052803373ffffffffffffffffffffffffffffffffffffffff1681526020013481525060016000848152602001908152602001600020600401600083815260200190815260200160002060008201518160000160006101000a81548173ffffffffffffffffffffffffffffffffffffffff021916908373ffffffffffffffffffffffffffffffffffffffff16021790555060208201518160010155905050600180600084815260200190815260200160002060030154016001600084815260200190815260200160002060050160003373ffffffffffffffffffffffffffffffffffffffff1673ffffffffffffffffffffffffffffffffffffffff168152602001908152602001600020819055505b3460016000848152602001908152602001600020600201600082825401925050819055505050565b600080600060025484108015610a77575060008410155b8015610ad7575060006001600086815260200190815260200160002060050160003373ffffffffffffffffffffffffffffffffffffffff1673ffffffffffffffffffffffffffffffffffffffff1681526020019081526020016000205414155b1515610ae257600080fd5b600180600086815260200190815260200160002060050160003373ffffffffffffffffffffffffffffffffffffffff1673ffffffffffffffffffffffffffffffffffffffff168152602001908152602001600020540391506001600085815260200190815260200160002060040160008381526020019081526020016000206001015490506000811415610b795760009250610c6a565b3373ffffffffffffffffffffffffffffffffffffffff168160405160006040518083038185876187965a03f1925050501515610bb85760009250610c6a565b80600160008681526020019081526020016000206002016000828254039250508190555060006001600086815260200190815260200160002060050160003373ffffffffffffffffffffffffffffffffffffffff1673ffffffffffffffffffffffffffffffffffffffff16815260200190815260200160002081905550600060016000868152602001908152602001600020600401600084815260200190815260200160002060010181905550600192505b5050919050565b600060025482108015610c85575060008210155b1515610c9057600080fd5b60006001600084815260200190815260200160002060050160003373ffffffffffffffffffffffffffffffffffffffff1673ffffffffffffffffffffffffffffffffffffffff168152602001908152602001600020541415610cf55760009050610d78565b600160008381526020019081526020016000206004016000600180600086815260200190815260200160002060050160003373ffffffffffffffffffffffffffffffffffffffff1673ffffffffffffffffffffffffffffffffffffffff168152602001908152602001600020540381526020019081526020016000206001015490505b919050565b336000806101000a81548173ffffffffffffffffffffffffffffffffffffffff021916908373ffffffffffffffffffffffffffffffffffffffff160217905550565b828054600181600116156101000203166002900490600052602060002090601f016020900481019282601f10610e0057805160ff1916838001178555610e2e565b82800160010185558215610e2e579182015b82811115610e2d578251825591602001919060010190610e12565b5b509050610e3b9190610e53565b5090565b602060405190810160405280600081525090565b610e7591905b80821115610e71576000816000905550600101610e59565b5090565b905600a165627a7a72305820129f07daf9e9666c6cedc1007f8e3ce8cabc1ea023d968dc3ec16dea7ea5075a0029",
  "source": "pragma solidity ^0.4.4;\n\n/*\n * A contract which allows external parties to contribute funds\n * to a list of books the contract owner creates. Contributors\n * also have the option to rescind their contributions.\n */\ncontract BookWishlist {\n  /*\n   * Struct definitions describing Contributions\n   * and desired Books.\n   * Used mapping as array for lower gas usage\n   */\n  struct Contribution {\n    address from;\n    uint256 value;\n  }\n  struct Book {\n    string  name;\n    uint256 value;\n    uint256 totalContributed;\n    uint    numContributors;\n    mapping(uint => Contribution) contributions;\n    mapping(address => uint) contributors;\n  }\n\n  /*\n   * Contract state variables\n   */\n  address private owner;\n  mapping(uint => Book) public books;\n  uint public numBooks;\n\n  // Allows only contract owner can execute modified functions\n  modifier onlyOwner() {\n      require(msg.sender == owner);\n      _;\n  }\n\n  // constructor\n  function BookWishlit() public {\n    owner = msg.sender;\n  }\n\n  /*\n   * Contributor functions\n   */\n\n  //Given a valid book ID, adds message sender's contribution to book @ id\n  function contribute(uint id) public payable {\n      require(msg.value > 0 && id < numBooks && id >= 0);\n      // if the person has already contributed, add to old contribution\n      if (books[id].contributors[msg.sender] != 0) {\n          books[id].contributions[books[id].contributors[msg.sender]].value += msg.value;\n      } else { // create new contribution for new sender\n          uint n = ++books[id].numContributors;\n          books[id].contributions[n] = Contribution(msg.sender, msg.value);\n          books[id].contributors[msg.sender] = books[id].numContributors+1;\n      }\n      books[id].totalContributed += msg.value;\n  }\n\n  // Given a valid book id, refunds the contribution of the message sender\n  function rescind(uint id) public payable returns (bool) {\n      require(id < numBooks && id >= 0 && books[id].contributors[msg.sender] != 0);\n      uint contributorId = books[id].contributors[msg.sender]-1;\n      uint val = books[id].contributions[contributorId].value;\n      if (val == 0) {\n          return false;\n      }\n      if (!msg.sender.call.value(val)()){\n          return false;\n      }\n      books[id].totalContributed -= val;\n      books[id].contributors[msg.sender] = 0;\n      books[id].contributions[contributorId].value = 0;\n      return true;\n  }\n\n  /*\n   * Owner functions\n   */\n\n  // Adds a book to book map\n  function addBook(string _name, uint256 _val) public onlyOwner returns (uint){\n      uint bookID = numBooks++;\n      books[bookID] = Book({name: _name, value: _val, totalContributed: 0, numContributors: 0});\n      return bookID;\n  }\n\n  // Sends all contributions back to contributors\n  function refundAll() public onlyOwner {\n      for (uint i = 0; i < numBooks; i++) {\n          for (uint j = 0; j < books[i].numContributors; j++) {\n              if (books[i].contributions[j].value != 0) {\n                  require(books[i].contributions[j].\n                                from.send(books[i].contributions[j].value));\n              }\n          }\n      }\n  }\n\n  // Destroys this contract and forwards all value to owner\n  function kill() public onlyOwner {\n      selfdestruct(owner);\n  }\n\n  /*\n   * View/Frontend functions\n   */\n\n  // Returns information about book @ id\n  function getListItem(uint id) public view returns (string, uint256, uint256) {\n      require(id < numBooks && id >= 0);\n      return (books[id].name, books[id].value, books[id].totalContributed);\n  }\n\n  // Returns the contribution of the sender to book @ id\n  function getContribution(uint id) public view returns (uint256) {\n      require(id < numBooks && id >= 0);\n      if (books[id].contributors[msg.sender] == 0) { return 0; }\n      else { return books[id].contributions[books[id].contributors[msg.sender]-1].value; }\n  }\n\n  // Fallback function (accepts payment)\n  function () public payable {\n  }\n}\n",
  "sourcePath": "/Users/Chase/security/ExampleDapp/contracts/BookWishlist.sol",
  "compiler": {
    "name": "solc",
    "version": "0.4.18+commit.9cf6e910.Emscripten.clang"
  },
  "schemaVersion": "1.0.1",
  "updatedAt": "2017-12-14T00:58:23.973Z"
}