{
  "contractName": "CrowdFund",
  "abi": [
    {
      "constant": false,
      "inputs": [
        {
          "name": "campaignID",
          "type": "uint256"
        }
      ],
      "name": "checkGoalReached",
      "outputs": [
        {
          "name": "",
          "type": "bool"
        },
        {
          "name": "",
          "type": "uint256"
        }
      ],
      "payable": false,
      "stateMutability": "nonpayable",
      "type": "function"
    },
    {
      "constant": false,
      "inputs": [
        {
          "name": "campaignID",
          "type": "uint256"
        }
      ],
      "name": "contribute",
      "outputs": [],
      "payable": true,
      "stateMutability": "payable",
      "type": "function"
    },
    {
      "constant": false,
      "inputs": [
        {
          "name": "beneficiary",
          "type": "address"
        },
        {
          "name": "goal",
          "type": "uint256"
        }
      ],
      "name": "newCampaign",
      "outputs": [
        {
          "name": "campaignID",
          "type": "uint256"
        }
      ],
      "payable": false,
      "stateMutability": "nonpayable",
      "type": "function"
    }
  ],
  "bytecode": "0x6060604052341561000f57600080fd5b61039d8061001e6000396000f300606060405260043610610057576000357c0100000000000000000000000000000000000000000000000000000000900463ffffffff1680635b2329d41461005c578063c1cbbca71461009e578063f7572cf3146100b6575b600080fd5b341561006757600080fd5b61007d600480803590602001909190505061010c565b60405180831515151581526020018281526020019250505060405180910390f35b6100b460048080359060200190919050506101cf565b005b34156100c157600080fd5b6100f6600480803573ffffffffffffffffffffffffffffffffffffffff169060200190919080359060200190919050506102a2565b6040518082815260200191505060405180910390f35b6000806000806001600086815260200190815260200160002091508160010154826003015410156101475760008260010154935093506101c8565b81600301549050600082600301819055508160000160009054906101000a900473ffffffffffffffffffffffffffffffffffffffff1673ffffffffffffffffffffffffffffffffffffffff166108fc829081150290604051600060405180830381858888f1935050505015156101bc57600080fd5b60018260010154935093505b5050915091565b600060016000838152602001908152602001600020905060408051908101604052803373ffffffffffffffffffffffffffffffffffffffff1681526020013481525081600401600083600201600081548092919060010191905055815260200190815260200160002060008201518160000160006101000a81548173ffffffffffffffffffffffffffffffffffffffff021916908373ffffffffffffffffffffffffffffffffffffffff160217905550602082015181600101559050503481600301600082825401925050819055505050565b60008060008154809291906001019190505590506080604051908101604052808473ffffffffffffffffffffffffffffffffffffffff1681526020018381526020016000815260200160008152506001600083815260200190815260200160002060008201518160000160006101000a81548173ffffffffffffffffffffffffffffffffffffffff021916908373ffffffffffffffffffffffffffffffffffffffff160217905550602082015181600101556040820151816002015560608201518160030155905050929150505600a165627a7a72305820f10ba68e383a4fa67efce12f27b4e7fc653cf7d9bf18a164881162d6a88df4ac0029",
  "source": "pragma solidity ^0.4.11;\n\ncontract CrowdFund {\n    // Defines a new type with two fields.\n    struct Funder {\n        address addr;\n        uint amount;\n    }\n\n    struct Campaign {\n        address beneficiary;\n        uint fundingGoal;\n        uint numFunders;\n        uint amount;\n        mapping (uint => Funder) funders;\n    }\n\n    uint numCampaigns;\n    mapping (uint => Campaign) campaigns;\n\n    function newCampaign(address beneficiary, uint goal) public returns (uint campaignID) {\n        campaignID = numCampaigns++; // campaignID is return variable\n        // Creates new struct and saves in storage. We leave out the mapping type.\n        campaigns[campaignID] = Campaign(beneficiary, goal, 0, 0);\n    }\n\n    function contribute(uint campaignID) payable {\n        Campaign storage c = campaigns[campaignID];\n        // Creates a new temporary memory struct, initialised with the given values\n        // and copies it over to storage.\n        // Note that you can also use Funder(msg.sender, msg.value) to initialise.\n        c.funders[c.numFunders++] = Funder({addr: msg.sender, amount: msg.value});\n        c.amount += msg.value;\n    }\n\n    function checkGoalReached(uint campaignID) public returns (bool, uint) {\n        Campaign storage c = campaigns[campaignID];\n        if (c.amount < c.fundingGoal)\n            return (false, c.fundingGoal);\n        uint amount = c.amount;\n        c.amount = 0;\n        c.beneficiary.transfer(amount);\n        return (true, c.fundingGoal);\n    }\n}\n/*pragma solidity ^0.4.4;\n\ncontract Crowdfund {\n\n\n  function Crowdfund() {\n\n  }\n\n\n  function kill() public {\n    require(msg.sender == owner);\n    selfdestruct(msg.sender);\n  }\n\n  function () public payable {\n\n  }\n}*/\n",
  "sourcePath": "/Users/Chase/security/ExampleDapp/contracts/CrowdFund.sol",
  "compiler": {
    "name": "solc",
    "version": "0.4.18+commit.9cf6e910.Emscripten.clang"
  },
  "schemaVersion": "1.0.1",
  "updatedAt": "2017-12-14T00:58:23.976Z"
}